:100000000C9434000C9446000C9446000C9446006A
:100010000C9446000C9446000C9446000C94460048
:100020000C9446000C9446000C9446000C94460038
:100030000C9446000C9446000C9446000C94460028
:100040000C9448000C9446000C9446000C94460016
:100050000C9446000C9446000C9446000C94460008
:100060000C9446000C94460011241FBECFEFD8E03C
:10007000DEBFCDBF21E0A0E0B1E001C01D92A23003
:10008000B207E1F70E9484000C949C000C940000DD
:100090001F920F920FB60F9211248F939F9380910E
:1000A000000190910101019790930101809300015B
:1000B0009F918F910F900FBE0F901F90189516BCB7
:1000C00021E025BD2DE7AC01249FC001259F900DA7
:1000D000112499230CF401969595879540E050E002
:1000E00061E070E00CC02091000130910101232BF0
:1000F00031F470930101609300014F5F5F4F481727
:1001000059078CF315BC089584E084B981E080938D
:100110006E0081E090E0909301018093000178945B
:10012000C4E0C5B98AEF90E00E945F0015B88AEF7D
:0C01300090E00E945F00F5CFF894FFCF34
:00000001FF
