S02100004350453330315F41737369676E6D656E74325F5061727432432E7372656382
S11300000C9434000C943E000C943E000C943E007E
S11300100C943E000C943E000C943E000C943E0064
S11300200C943E000C943E000C943E000C943E0054
S11300300C943E000C943E000C943E000C943E0044
S11300400C943E000C943E000C943E000C943E0034
S11300500C943E000C943E000C943E000C943E0024
S11300600C943E000C943E0011241FBECFEFD8E048
S1130070DEBFCDBF0E9440000C9455000C940000DC
S113008084E084B91BB81AB894E089B18695869542
S1130090E1F395B92FEF33ED80E3215030408040F8
S11100A0E1F700C0000015B8F0CFF894FFCFD0
S9030000FC
