:100000000C9434000C943E000C943E000C943E0082
:100010000C943E000C943E000C943E000C943E0068
:100020000C943E000C943E000C943E000C943E0058
:100030000C943E000C943E000C943E000C943E0048
:100040000C943E000C943E000C943E000C943E0038
:100050000C943E000C943E000C943E000C943E0028
:100060000C943E000C943E0011241FBECFEFD8E04C
:10007000DEBFCDBF0E9440000C9458000C940000DD
:1000800084E084B985B92FEF34E39CE021503040FF
:100090009040E1F700C0000015B82FEF34E39CE07A
:1000A000215030409040E1F700C0000085B9EBCF0F
:0400B000F894FFCFF2
:00000001FF
