S02000004350453330315F41737369676E6D656E74325F50617235432E73726563F4
S11300000C9434000C945F000C9446000C9446004D
S11300100C9446000C9446000C9446000C94460044
S11300200C9446000C9446000C9446000C94460034
S11300300C9446000C9446000C9446000C94460024
S11300400C9448000C9446000C9446000C94460012
S11300500C9446000C9446000C9446000C94460004
S11300600C9446000C94460011241FBECFEFD8E038
S1130070DEBFCDBF21E0A0E0B1E001C01D92A430FD
S1130080B207E1F70E94A3000C94CD000C94000089
S11300901F920F920FB60F9211248F939F9380910A
S11300A0020190910301019790930301809302014F
S11300B09F918F910F900FBE0F901F9018951F92D4
S11300C00F920FB60F9211248F939F9381E090E0CB
S11300D090930101809300019F918F910F900FBE27
S11300E00F901F9018952DE7AC01249FC001259F08
S11300F0900D112499230CF401969595879516BCBF
S113010021E025BD40E050E061E070E010C02091A6
S1130110020130910301232B21F048175907B8F34A
S113012010C070930301609302014F5F5F4F481743
S1130130590739F02091020130910301232B39F73B
S1130140F0CF15BC089584E084B98BB919B881E067
S113015080936E00E9E6F0E0808183608083E89A12
S113016081E090E0909303018093020110920101D9
S1130170109200017894C4E08091000190910101F3
S1130180892BD1F31092010110920001C5B988EEB8
S111019093E00E94730015B8EFCFF894FFCFF0
S9030000FC
