S02100004350453330315F41737369676E6D656E74325F5061727433432E7372656381
S11300000C9434000C943E000C943E000C943E007E
S11300100C943E000C943E000C943E000C943E0064
S11300200C943E000C943E000C943E000C943E0054
S11300300C943E000C943E000C943E000C943E0044
S11300400C943E000C943E000C943E000C943E0034
S11300500C943E000C943E000C943E000C943E0024
S11300600C943E000C943E0011241FBECFEFD8E048
S1130070DEBFCDBF0E945F000C946D000C940000A5
S113008021E025BD16BC4DE79C01429FC001439F62
S1130090900D112499230CF401969C013595279514
S11300A040E050E008C095B3992329F085B38760F8
S11300B085BB4F5F5F4F42175307ACF3089584E04D
S11300C084B9C4E08AEF90E00E944000C5B98AEF89
S11100D090E00E94400015B8F5CFF894FFCFE1
S9030000FC
